:020000040800F2
:10000000B00F0020ED010008F5010008F70100081D
:10001000F9010008FB010008FD01000800000000D4
:10002000000000000000000000000000FF010008C8
:100030000102000800000000030200085517000834
:10004000070200080702000807020008070200086C
:10005000070200080702000807020008070200085C
:10006000070200080702000807020008070200084C
:10007000070200080702000807020008070200083C
:10008000070200080702000807020008070200082C
:100090004D1B000875080008070200080702000849
:1000A000070200080702000807020008070200080C
:1000B00007020008070200080702000807020008FC
:1000C00007020008070200080702000807020008EC
:1000D00007020008091800086D180008B118000888
:1000E00007020008070200080702000807020008CC
:1000F00007020008070200080702000807020008BC
:1001000007020008070200080702000807020008AB
:10011000C5170008070200080702000807020008C8
:10012000070200080702000807020008070200088B
:1001300000F002F800F04BF80AA090E8000C8244AE
:100140008344AAF10107DA4501D100F040F8AFF28B
:10015000090EBAE80F0013F0010F18BFFB1A43F0A5
:1001600001031847E83A0000083B0000103A24BF9A
:1001700078C878C1FAD8520724BF30C830C144BF0C
:1001800004680C607047000000230024002500264E
:10019000103A28BF78C1FBD8520728BF30C148BFEA
:1001A0000B607047642900F0B380732900F08382EC
:1001B000002070471FB500F0D5FA04000020002190
:1001C00003F000FC401C60601FBD10B510BD00F0C6
:1001D000DBFA1146FFF7EEFF02F0E8F900F0F9FA5A
:1001E00003B4FFF7F2FF03BC00F03CFB0948804773
:1001F00009480047FEE7FEE7FEE7FEE7FEE7FEE709
:10020000FEE7FEE7FEE7FEE704480549054A064B20
:10021000704700006517000831010008B009002090
:10022000B00F0020B00B0020B00B00200FB41CB5A5
:10023000074B06AA7B4469460090059800F011FA26
:100240000020694600F020FA1CBC5DF814FB000099
:10025000510400002DE9F0410E46044600202062C2
:100260002046E168884730B3252805D0D4E901212C
:100270009047206A401CF2E7E16820460027884743
:10028000050018D0A5F14100192802D820354FF4F7
:1002900000673246294620462760FFF783FF40B1BA
:1002A000012804D0F61D26F007060836D8E7361DCB
:1002B000D6E72846DAE7206ABDE8F08170B50C463B
:1002C0000546012A05D02878800600D5EA69002372
:1002D00002E0012305E05B1C934202D2E05C0028AF
:1002E000F9D1A869E618C01AA861286A18442862DA
:1002F0002846AFF3008004E0D5E9012114F8010B92
:100300009047B442F8D32846AFF3008070BD000098
:100310002DE9F0410646002410687529314616A5DE
:1003200010D0AFF30080002802DA404213A507E0A6
:1003300031688A0701D512A502E0490704D511A545
:10034000012401E0AFF3008000210A2206F1240716
:1003500009E0B0FBF2FCB0FBF2F302FB1C00303012
:1003600078541846491C0028F3D123462A463046C3
:10037000BDE8F04100F016B9000000002D000000BB
:100380002B000000200000002DE9F04791460F46A9
:1003900080460446002614F8015B2DB100F0F6F803
:1003A0000068405DC007F6D12B2D02D02D2D18D04E
:1003B000641E4A463946204600F081F927B1396863
:1003C000A14201D1C7F800804FF0020471050BD59E
:1003D0004042002803DD00F0E1F80460A007BDE81A
:1003E000F08746F48066E4E70028F8DA00F0D6F8F3
:1003F00004606FF00040F2E740EA010310B59B078C
:100400000FD1042A0DD310C808C9121F9C42F8D07E
:1004100020BA19BA884201D9012010BD4FF0FF302F
:1004200010BD1AB1D30703D0521C07E0002010BD45
:1004300010F8013B11F8014B1B1B07D110F8013BD1
:1004400011F8014B1B1B01D1921EF1D1184610BDB2
:1004500010B5431C02E010F8011B71B18107FAD1FD
:100460004FF0013202C88C1A8C4314EAC211F9D041
:10047000C01A0A0603D0C01E10BDC01A10BD0A045F
:1004800001D0801E10BD0902FCD0401E10BD10B569
:10049000203AC0F00B80B1E81850203AA0E818507C
:1004A000B1E81850A0E81850BFF4F5AF5FEA027C3D
:1004B00024BFB1E81850A0E8185044BF18C918C0AC
:1004C000BDE810405FEA827C24BF51F8043B40F84D
:1004D000043B08BF7047D20728BF31F8023B48BF32
:1004E00011F8012B28BF20F8023B48BF00F8012B70
:1004F00070474FF000020429C0F0128010F0030C86
:1005000000F01B80CCF1040CBCF1020F18BF00F806
:10051000012BA8BF20F8022BA1EB0C0100F00DB8B5
:100520005FEAC17C24BF00F8012B00F8012B48BF13
:1005300000F8012B70474FF0000200B513469446B7
:100540009646203922BFA0E80C50A0E80C50B1F12B
:100550002001BFF4F7AF090728BFA0E80C5048BF3F
:100560000CC05DF804EB890028BF40F8042B08BFDD
:10057000704748BF20F8022B11F0804F18BF00F8D9
:10058000012B7047704770477047000010B500F0AE
:10059000E9F8001D10BD00BF2D3400000048704771
:1005A000500900202DE9F0470D4699469246044631
:1005B00000F124080168880604D5E06921F01001E3
:1005C000216000E00120A84201DD471B00E0002778
:1005D000A1697A1902EB0900081AA0612078C00607
:1005E00002D42046AFF30080002608E0D4E90121C0
:1005F0001AF806009047206A401C761C20624E457F
:10060000F4DB2078C0060AD52046AFF3008006E070
:10061000D4E9012130209047206A401C2062381E16
:10062000A7F10107F4DC07E0D4E9012118F805007F
:100630009047206A401C2062281EA5F10105F3DCCA
:100640002046AFF300802078000602D50220BDE8E6
:10065000F0870120FBE7000001694A1C026108786D
:10066000704700B58FB0CDE90131002105910549F2
:100670007944CDE9031011466846FFF7EBFD0FB052
:1006800000BD0000E5FFFFFF0A6802F8010B0A60E9
:10069000704710B5436913B1AFF3008001E0FFF775
:1006A0000DFE012010BD127800F124010A70002215
:1006B0004A700122EDE711684FF0FF32E9E72DE9BA
:1006C000F05F824615468B4600270AF10104B946C1
:1006D0000078302801D09DB113E014F8010B0127F8
:1006E000782803D0582801D045B10AE00DB1102D6B
:1006F00007D1002714F8010B102502E0082500E0BF
:100700000A250026B0460EE005FB080005FB06F1B1
:1007100001271FFA80F801EB1046B6F5803F00D3A1
:10072000B94614F8010B294600F020F80028EBDA4E
:10073000BBF1000F05D00FB1641E00E05446CBF8AA
:100740000040B9F1000F06D0FFF728FF0221016039
:10075000C81EBDE8F09F48EA0640FAE70048704727
:100760005009002000487047700900203A2800D244
:10077000303820F02002412A01D3A2F1370088420C
:1007800001D34FF0FF3070477546FFF7E7FFAE46E5
:1007900005006946534620F00700854618B020B58D
:1007A000FFF732FDBDE820404FF000064FF0000794
:1007B0004FF000084FF0000B21F00701AC46ACE809
:1007C000C009ACE8C009ACE8C009ACE8C0098D4676
:1007D000704710B50446AFF300802046BDE81040D6
:1007E000FFF7FEBC4FF0013C50F8042B51F8043BDE
:1007F0009A4221D1A2EB0C03934313EACC1317D1F5
:1008000050F8042B51F8043B9A4215D1A2EB0C038B
:10081000934313EACC130BD150F8042B51F8043B4B
:100820009A4209D1A2EB0C03934313EACC13DBD019
:100830004FF00000704700BFD01A01BAB1FA81F141
:1008400001F0180122FA01F0CB40C1F12001DBB226
:10085000C0B2C01A2CFA01F3D11A914311EAC311A4
:10086000E6D1704701491820ABBEFEE72600020022
:100870007047000000B585B06A460121024800F0CB
:1008800085FA05B000BD00000064004010B50021ED
:10089000837A012202FA03F13D4A126842F0010212
:1008A0003B4B1A603A4A1C3212688A43384B1C335D
:1008B0001A60027BCAB9364A0C3212688A43344B3A
:1008C0000C331A604288C38842EA0343304A4032FC
:1008D000847A42F834300288838842EA03432C4AFF
:1008E0004032847A02EBC4025360027B012A19D1A0
:1008F000274A0C3212680A43254B0C331A6042888F
:10090000038842EA0343224A4032847A42F8343070
:10091000C288838842EA03431D4A4032847A02EB4C
:10092000C4025360C27A3AB9194A121D12688A4346
:10093000174B1B1D1A6006E0154A121D12680A4368
:10094000134B1B1D1A60028932B9114A1432126806
:100950008A430F4B14331A600289012A06D10C4ACC
:10096000143212680A430A4B14331A60427B012A7C
:1009700006D1074A1C3212680A43054B1C331A6021
:10098000034A126822F00102014B1A6010BD0000F8
:10099000006600401AB143690B43436102E04369BA
:1009A0008B434361704730B5024600200023146832
:1009B00024F002041460146844F00104146000E0A0
:1009C0005B1C546804F001041CB94FF6FF74A34289
:1009D000F6D1546804F001040CB900206CE08C7965
:1009E000012C04D1146844F08004146003E01468FE
:1009F00024F080041460CC79012C04D1146844F0F4
:100A00004004146003E0146824F0400414600C7A7D
:100A1000012C04D1146844F02004146003E014682D
:100A200024F0200414604C7A012C04D1146844F0A2
:100A30001004146003E0146824F0100414608C7A2D
:100A4000012C04D1146844F00804146003E0146815
:100A500024F008041460CC7A012C04D1146844F00A
:100A60000404146003E0146824F0040414608C7817
:100A7000A407CD7844EA05640D7944EA05444D792C
:100A800044EA05540D886D1E2C43D461146824F08B
:100A900001041460002300E05B1C546804F00104AE
:100AA0001CB14FF6FF74A342F6D1546804F0010460
:100AB0000CB1002000E0012030BD00002DE9F04124
:100AC0008AB004460F4615461E46DDF840800D2DBF
:100AD00003D901200AB0BDE8F0810121480600F0E9
:100AE000F7FC0121092000F013FD01214FF4EA1069
:100AF00000F048FC4FF48070ADF8240003208DF81E
:100B0000260048208DF8270009A99E4800F0AFFB79
:100B10004FF40070ADF8240018208DF8270009A9C3
:100B2000984800F0A4FB012212219748FFF732FFFA
:100B300014208DF8040001208DF8050000208DF8A8
:100B4000060001208DF8070001A800F089FC15209F
:100B50008DF8040001208DF8050000208DF80600B6
:100B600001208DF8070001A800F07AFC00208DF824
:100B70001E008DF81F008DF8200001208DF8210047
:100B800000208DF822008DF823008DF81A700F2CAC
:100B900073D2DFE804F0081624313E4B58657380A9
:100BA0008D9AA7B4C10001208DF81B0005208DF897
:100BB0001C0003208DF81D004FF41670ADF81800CE
:100BC000B8E000208DF81B0002208DF81C000120E9
:100BD0008DF81D004FF41670ADF81800AAE0002043
:100BE0008DF81B0009208DF81C0006208DF81D00D3
:100BF0006420ADF818009DE000208DF81B00022055
:100C00008DF81C0001208DF81D00F020ADF81800B3
:100C100090E000208DF81B0002208DF81C000120C0
:100C20008DF81D009620ADF8180083E000208DF8A7
:100C30001B0009208DF81C0006208DF81D002820BF
:100C4000ADF8180076E000208DF81B0002208DF82A
:100C50001C0001208DF81D004B20ADF8180069E044
:100C600000208DF81B0009208DF81C0006208DF84F
:100C70001D001420ADF818005CE05AE000208DF84B
:100C80001B0002208DF81C0001208DF81D00302073
:100C9000ADF818004EE000208DF81B0007208DF8FD
:100CA0001C0006208DF81D000920ADF8180041E059
:100CB00000208DF81B0002208DF81C0001208DF80B
:100CC0001D001820ADF8180034E000208DF81B003E
:100CD00004208DF81C0002208DF81D000A20ADF8BC
:100CE000180027E000208DF81B0005208DF81C005F
:100CF00004208DF81D000620ADF818001AE0002031
:100D00008DF81B0004208DF81C0002208DF81D00BA
:100D10000520ADF818000DE000208DF81B00022022
:100D20008DF81C0001208DF81D000620ADF818007C
:100D300000E000BF00BF06A91348FFF734FEE8B289
:100D40008DF8120000208DF8130001208DF814009A
:100D5000300CADF80800F0B2ADF80A004FEA1840C8
:100D6000ADF80C0008F0FF00ADF80E000020ADF863
:100D7000100001208DF8150002A8FFF787FD002064
:100D8000A8E60000000C01400064004010B500F52A
:100D9000D87303EB01131B6803F004031372137A77
:100DA00053B900F5D87303EB01131B6840F2FF74CD
:100DB00004EA5353136009E000F5D87303EB011301
:100DC0001B686FF0604404EAD303536000F5D873E6
:100DD00003EB01131B6803F00203537200F5D87391
:100DE00003EB01135B6803F00F03937200F5D873F4
:100DF00003EB01135B681B0AD37400F5D87303EB94
:100E000001139B68D37200F5D87303EB01139B6841
:100E10001C0A147300F5D87303EB01139B681C0CB8
:100E2000547300F5D87303EB01139B681B0E937387
:100E300000F5D87303EB0113DB68D37300F5D873A7
:100E400003EB0113DB681C0A147400F5D87303EB81
:100E50000113DB681C0C547400F5D87303EB011309
:100E6000DB681B0E937421B9C36843F02003C36091
:100E700003E0036943F02003036110BD1CB50F4874
:100E8000B0F80401C8B10EA103C9CDE900010B49B6
:100E900008880822694600F009F9044624B10C21AB
:100EA00009A002F0D3FC07E000200449A1F80401E6
:100EB0000A2109A002F0CAFC00BF1CBD8C0500205D
:100EC000010203040506070873656E642066616904
:100ED0006C65640A0000000073656E6420737563BE
:100EE000630A000010B502460020936803F0806397
:100EF000B3F1806F00D110E0936803F00063B3F1A9
:100F0000006F01D1012008E0936803F08053B3F132
:100F1000805F01D1022000E00420042874D002F593
:100F2000C07303EB00131B6803F0010402F5C073E8
:100F300003EB00131C600B7A7BB94B7A0C8843EAF5
:100F4000445302F5C07404EB00142468234302F5F3
:100F5000C07404EB0014236010E00B7A4C6843EA81
:100F6000C4034C7A234302F5C07404EB00142468D4
:100F7000234302F5C07404EB001423608B7A03F062
:100F80000F038B7202F5C07303EB00135B6823F051
:100F90000F0402F5C07303EB00135C6002F5C0732D
:100FA00003EB00135B688C7A234302F5C07404EBF7
:100FB000001463608B7B1C064B7B44EA03440B7B71
:100FC00044EA0323CC7A234302F5C07404EB0014F3
:100FD000A3608B7C1C064B7C44EA03440B7C44EAF4
:100FE0000323CC7B234302F5C07404EB0014E360BD
:100FF00002F5C07303EB00131B6843F0010402F514
:10100000C07303EB00131C6010BD000010B5024656
:10101000002321B1012907D002290FD109E09068EE
:101020001D4C00EA04030BE090681C4C00EA04032A
:1010300006E090681A4C00EA040301E0002300BFB8
:1010400000BF184C181BA34216D007DC83B16FF009
:101050008060184470B1022818D111E0B0F5007F0B
:1010600010D0114C204448B1B0F5003F0ED10BE038
:1010700002230DE000230BE0002309E0002307E03A
:10108000012305E0012303E0012301E0002300BF69
:1010900000BFD8B210BD0000030000040003000828
:1010A00000000310000100080001FFF72DE9F041E6
:1010B00086B006460F469046002400200190029616
:1010C00004208DF80C0000208DF80D008DF80E80A6
:1010D00000BF05E0395D0DF10F000155601C84B2C1
:1010E000082CF7DB01A90E48FFF7FCFE054600249B
:1010F00001E0601C84B229460948FFF787FF0128F8
:1011000003D040F6FF708442F3DB40F6FF70844268
:1011100003DB012006B0BDE8F0810020FAE7000003
:10112000006400400149C860704700000020024090
:1011300030B5044604254FF4302000F085F805460C
:10114000042D17D10C48006940F002000A490861DB
:1011500008464461006940F0400008614FF43020C7
:1011600000F072F805460448006941F6FD71084038
:1011700001490861284630BD0020024004200B4987
:10118000C96801F0010109B101200EE00749C968F1
:1011900001F0040109B1022007E00449C96801F027
:1011A000100109B1032000E0042070470020024034
:1011B0000348006940F08000014908617047000061
:1011C0000020024078B506460C4604250020009019
:1011D000E80200F039F80546042D24D113480069CF
:1011E00040F00100114908613480E80200F02CF859
:1011F0000546042D10D1B01C0090200C00990880E9
:10120000E80200F021F805460848006941F6FE7141
:1012100008400649086106E00448006941F6FE718D
:10122000084002490861284678BD000000200240BD
:1012300002480349486003484860704723016745F6
:1012400000200240AB89EFCD00B502460423FFF732
:1012500095FF034603E0FFF791FF0346521E012B63
:1012600001D1002AF7D102B90523184600BD2DE9A6
:10127000F04102460025002600200023002400271C
:1012800091F803C00CF00F0591F803C00CF0100C9E
:10129000BCF1000F03D091F802C04CEA050591F8AB
:1012A00000C0BCF1000F31D0146800202BE04FF0DB
:1012B000010C0CFA00F3B1F800C00CEA03069E42E0
:1012C00020D183004FF00F0C0CFA03F7BC4305FA52
:1012D00003FC4CEA040491F803C0BCF1280F06D1CA
:1012E0004FF0010C0CFA00FCC2F814C00AE091F8AF
:1012F00003C0BCF1480F05D14FF0010C0CFA00FC03
:10130000C2F810C0401C0828D1D31460B1F800C046
:10131000BCF1FF0F34DD546800202EE000F1080C12
:101320004FF0010808FA0CF3B1F800C00CEA03060C
:101330009E4221D183004FF00F0C0CFA03F7BC43FF
:1013400005FA03FC4CEA040491F803C0BCF1280F31
:1013500005D100F1080C08FA0CF8C2F8148091F8D5
:1013600003C0BCF1480F07D100F1080C4FF0010891
:1013700008FA0CF8C2F81080401C0828CED354603C
:10138000BDE8F081F0B50A460023002400210025C5
:1013900000F00046B6F1004F02D11D4EF16901E0A8
:1013A0001B4E7168C0F3034583B200F44016B6F5D6
:1013B000401F08D121F07061154E766826F07066E6
:1013C000134F7E6012E000F48016B6F5801F06D140
:1013D000032606FA05F4A14341F0706106E0460DCC
:1013E000360103FA06F6B14341F0706122B1460DB1
:1013F000360103FA06F6314300F00046B6F1004F1D
:1014000002D1034EF16101E0014E7160F0BD0000B8
:101410000000014041617047016170474CF6CC40CB
:101420000149086070470000003000404AF6AA20D9
:1014300001490860704700000030004001494860E1
:10144000704700000030004001498860704700008C
:101450000030004001490860704700000030004043
:1014600070B5002100230F22C47804B3154C246802
:1014700004F4E064C4F5E064210AC1F10403CA4045
:10148000447804FA03F184781440214309010E4C96
:101490000678A155047804F01F050124AC400578B6
:1014A0006D11AD0005F1E025C5F8004109E00478B3
:1014B00004F01F050124AC40044D0678761145F870
:1014C000264070BD0CED00E000E400E080E100E0AB
:1014D00029B1064AD2690243044BDA6104E0034AA7
:1014E000D2698243014BDA6170470000001002406C
:1014F00029B1064A12690243044B1A6104E0034A07
:1015000012698243014B1A617047000000100240CB
:1015100029B1064A92690243044B9A6104E0034AE6
:1015200092698243014B9A617047000000100240AB
:1015300029B1064AD2680243044BDA6004E0034A48
:10154000D2688243014BDA6070470000001002400D
:1015500030B500210022002400232D4D6D6805F0D8
:101560000C0121B1042905D0082923D105E0294D1A
:10157000056022E0274D05601FE0254D6D6805F4EC
:101580007012234D6D6805F48034022505EB9242FC
:101590001CB9214D554305600BE01D4D6D6805F4E8
:1015A00000351DB11C4D5543056002E0194D5543F2
:1015B000056002E0174D056000BF00BF144D6D6867
:1015C00005F0F0010909154D6B5C0568DD404560CB
:1015D0000F4D6D6805F4E061090A104D6B5C4568BC
:1015E000DD4085600A4D6D6805F46051C90A0B4DF8
:1015F0006B5C4568DD40C560054D6D6805F4404194
:10160000890B074D6B5CC568B5FBF3F5056130BD13
:101610000010024000127A0000093D003C0000204A
:101620004C00002010B501460022002300204A1182
:10163000012A02D1094C236806E0022A02D1074C94
:10164000236A01E0054C636A01F01F020124944003
:101650001C400CB1012000E0002010BD0010024031
:1016600001490860704700008004424210B500F054
:1016700001F810BD0CB500200190009033480068BF
:1016800040F480303149086000BF3048006800F401
:10169000003000900198401C0190009818B9019802
:1016A000B0F5A06FF1D12948006800F4003010B106
:1016B0000120009001E0002000900098012843D113
:1016C0002348006840F0100021490860084600687F
:1016D00020F0030008600846006840F0020008603F
:1016E0001A484068194948600846406848600846FA
:1016F000406840F4806048600846406820F47C10F0
:1017000048600846406840F4E810486008460068B1
:1017100040F08070086000BF0C48006800F0007066
:101720000028F9D00948406820F0030007494860C4
:101730000846406840F00200486000BF0348406827
:1017400000F00C000828F9D10CBD00000010024088
:101750000020024002480068401C014908607047B0
:101760003800002010B51348006840F0010011490E
:10177000086008464068104908400E49486008461D
:1017800000680E4908400B4908600846006820F4CC
:10179000802008600846406820F4FE0048604FF44E
:1017A0001F008860FFF762FF4FF000600449086087
:1017B00010BD0000001002400000FFF8FFFFF6FE21
:1017C00008ED00E010B540F225510C4800F0F9F8A2
:1017D00090B10A4800F0B0F9C4B209480168006845
:1017E000401C074A10600748445410460068C82847
:1017F00002D3C7201146086010BD0000004C004015
:10180000300000206C07002010B540F2255113482D
:1018100000F0D7F800B3114800F08EF9C4B21048B8
:101820000068C8B90D2C01D00A2C06D10D480068FB
:1018300090B101200A4908600EE00A48016800687A
:10184000401C084A10600848445410460068C828E4
:1018500002D3C7201146086010BD000000380140C7
:1018600008000020000000203403002010B540F2E2
:1018700025510C4800F0A5F890B10A4800F05CF939
:10188000C4B2094801680068401C074A1060074854
:10189000445410460068C82802D3C7201146086087
:1018A00010BD0000004400400C000020FC0300209C
:1018B00010B540F225510C4800F083F890B10A4869
:1018C00000F03AF9C4B2094801680068401C074AB0
:1018D00010600748445410460068C82802D3C72047
:1018E0001146086010BD00000048004014000020B0
:1018F000C404002021B1828942F40052828104E0B4
:1019000082894DF6FF731A408281704710B50446F4
:101910002048844209D101218803FFF709FE0021F4
:101920004FF48040FFF704FE32E01B48844209D1A7
:1019300001214804FFF7DCFD00214FF40030FFF7E0
:10194000D7FD25E01548844209D101218804FFF71D
:10195000CFFD00214FF48020FFF7CAFD18E01048AA
:10196000844209D10121C804FFF7C2FD00214FF4D0
:101970000020FFF7BDFD0BE00A48844208D1012199
:101980000805FFF7B5FD00214FF48010FFF7B0FD0B
:1019900010BD0000003801400044004000480040F5
:1019A000004C00400050004002460020B1F5007F8E
:1019B00000D100BF13880B400BB1012000E00020D4
:1019C000704770B50246002400230025002040F631
:1019D0006A16B14200D100BFC1F3421501F01F03E6
:1019E000012606FA03F3012D02D19689334006E061
:1019F000022D02D1168A334001E0968A33400C1240
:101A0000012606FA04F41688344013B10CB1012003
:101A100000E0002070BDF0B503460024002600253C
:101A2000002040F66A17B94200D100BF1846C1F342
:101A3000421401F01F06012707FA06F5012C01D117
:101A40000C3004E0022C01D1103000E014301AB147
:101A500007682F43076002E00768AF430760F0BDE7
:101A60002DE9F04786B005460E460024A24600BF89
:101A7000A1460027B08900B100BF2F462C8A4CF642
:101A8000FF700440F08804432C82AC894EF6F310BA
:101A90000440B08831890843718908430443AC810C
:101AA000AC8A4FF6FF400440B0890443AC8201A8E1
:101AB000FFF74EFD1F48874202D1DDF810A001E07C
:101AC000DDF80CA0A88900F4004040B10AEBCA0080
:101AD00000EB0A1031684900B0FBF1F807E00AEBAF
:101AE000CA0000EB0A1031688900B0FBF1F86420ED
:101AF000B8FBF0F004012009642101FB1089A889DA
:101B000000F4004040B1322000EBC900B0FBF1F01E
:101B100000F00700044308E0322000EB09106421C4
:101B2000B0FBF1F000F00F0004432C8106B0BDE8DB
:101B3000F08700000038014001468888C0F30800A3
:101B40007047C1F3080282807047000010B586B06C
:101B5000002401AA00210948FFF718F900BF09E095
:101B60000DF10F00005D064908550846007C401C39
:101B70000874641C082CF3DB06B010BD0064004040
:101B80003408002070B590B005460E4600240CE0E5
:101B9000601C1B4951F820004DF82400601CB5EB77
:101BA000800F01D14DF82460641C102CF0DBFFF78E
:101BB0003FFB3420FFF7B6FA0120124908701048A5
:101BC000FFF7B6FA0F49087008460078042810D1CC
:101BD0000120087000240AE05DF82410621C084B04
:101BE00003EB8200FFF7EEFA06490870641C102C24
:101BF000F2DB012003490870FFF7DAFA10B070BD7C
:101C000000F000081C0000207CB56448007C082817
:101C10007CD162484078012806D002282CD00328C5
:101C200035D0062873D173E05D4800885B49097898
:101C3000884205DA5A484088401C594948801AE0D1
:101C40005748008855490978884214D100240FE08C
:101C5000544830F8240050B950488078514921F850
:101C600024004F48408801EB8401488002E0641C56
:101C7000802CEDDB00BF8BE049480088474909789C
:101C8000884203D101204649A1F8040180E044487C
:101C9000008842490978884237D140488078012835
:101CA00017D18DF8000003208DF801003B48C07863
:101CB0008DF80200394800798DF8030037488079A3
:101CC0003649497940EA01252946684600F0D3FEA5
:101CD0001BE032488078022817D101208DF80000DF
:101CE00003208DF801002D48C0788DF802002B48A4
:101CF00000798DF80300294880792849497940EA1C
:101D000001252946684600F0B6FE41E044E03EE089
:101D10002348008821490978884237D11F488078B4
:101D2000012817D18DF8000006208DF801001B480E
:101D3000C0788DF80200194800798DF80300174823
:101D400080791649497940EA01252946684600F01C
:101D500092FE1BE011488078022817D101208DF8EF
:101D6000000006208DF801000C48C0788DF80200B4
:101D70000A4800798DF803000848807907494979B5
:101D800040EA01252946684600F075FE00E000BFE4
:101D900000BF0020014908747CBD00003408002009
:101DA0008C05002034010020F0B502460E464FF6A7
:101DB000FF7015467DB100240BE02B7880EA03010B
:101DC000CFB2DFF820C03CF8177087EA20206D1CE6
:101DD000641CB442F1D34FF6FF7707EA00210012EA
:101DE0000843F0BDF03900084FF6FF700549A1F82F
:101DF000060101460348A0F8081100200149A1F896
:101E0000040170478C05002006494868411C19B13F
:101E10000549C1F8B00003E00521034AC2F8B0103B
:101E20007047000000F00008640000200549C86900
:101E3000411C11B1044A108002E00121024A1180C4
:101E40007047000000F000088C05002000B5FFF787
:101E5000DBFF00F087F800F03FF800F071F800F0C9
:101E60004BF800F05BF8FFF7E1FF00BD10B5A6B03E
:101E7000802106A8FEF75FFB124800881249D1F8BE
:101E8000D010114AD2F8CC200F4BD3F8C830CDE98E
:101E90000132CDE903100D48008800900C48D0F8BD
:101EA000BC300C49D0F8B02006A8FEF7BFF906A850
:101EB000FEF7CEFA0446214606A801F0BDFB26B087
:101EC00010BD00008C050020980600201E00002098
:101ED00064000020F83B00080549C868411C11B1A6
:101EE000044A108003E04FF4FA51024A118070470F
:101EF00000F000081E00002006494869411C19B185
:101F00000549C1F8CC0003E03221034AC2F8CC10E5
:101F10007047000000F00008980600200649886914
:101F2000411C19B10549C1F8D00004E042F210711A
:101F3000024AC2F8D010704700F00008980600204E
:101F400006490869411C19B10549C1F8C80004E0F7
:101F500040F2DC51024AC2F8C810704700F0000895
:101F60009806002006498868411C19B10549C1F846
:101F7000BC0004E040F21451024AC2F8BC107047A1
:101F800000F000086400002001480068704700006D
:101F900038000020004870473403002004480068DF
:101FA000012802D10348006870470020FCE70000C8
:101FB000080000200000002000487047FC030020BB
:101FC00001480068704700000C00002070B504460E
:101FD0000D46257006212046FFF7E6FE0646300A2C
:101FE000A071E6710821204601F030FC70BDF0B50B
:101FF00085B004460D46164614216846FEF79BFA46
:102000002670280A2071657106212046FFF7CCFE54
:1020100007463812A071E7710821204601F016FC2E
:1020200005B0F0BD2DE9F04100250024002693E223
:1020300054B901F01DFB0821FA4801F007FCFFF735
:10204000A3FF0646012487E2012C17D1304600F099
:1020500055FB3228EBD9FFF7AFFF07460822F149BD
:10206000FEF7CAF910B1641C002575E2032D02DAEF
:102070006D1C641E70E2641C00256DE2022C0BD105
:1020800001F0F6FA0821E748083001F0DFFBFFF71E
:102090007BFF0646641C5FE2032C18D1304600F03B
:1020A0002DFB3228C3D9FFF787FF07460822DD49F9
:1020B0000831FEF7A1F910B1641C00254CE2032D94
:1020C00002DA6D1C641E47E2641C002544E2042C05
:1020D0000CD101F0CDFAD348D0F8CC10103000F07C
:1020E000CAFCFFF751FF0646641C35E2052C18D1E7
:1020F000304600F003FB322899D9FFF75DFF074611
:102100000822C8491031FEF777F910B1641C002588
:1021100022E2032D02DA6D1C641E1DE2641C002500
:102120001AE2062C0CD101F0A3FABE48D0F8CC106C
:10213000183000F0A0FCFFF727FF0646641C0BE2F6
:10214000072C18D1304600F0D9FA32288DD9FFF784
:1021500033FF07460822B3491831FEF74DF910B195
:10216000641C0025F8E1032D02DA6D1C641EF3E106
:10217000641C0025F0E1082C0BD101F079FA08214C
:10218000A848203001F062FBFFF7FEFE0646641C03
:10219000E2E1092C18D1304600F0B0FA32288DD98E
:1021A000FFF70AFF074608229E492031FEF724F96F
:1021B00010B1641C0025CFE1032D02DA6D1C641EF2
:1021C000CAE1641C0025C7E10A2C0BD101F050FACA
:1021D00008219448283001F039FBFFF7D5FE064668
:1021E000641CB9E10B2C18D1304600F087FA322874
:1021F0008ED9FFF7E1FE074608228A492831FEF70B
:10220000FBF810B1641C0025A6E1032D02DA6D1C59
:10221000641EA1E1641C00259EE10C2C0BD101F091
:1022200027FA08217F48303001F010FBFFF7ACFEA1
:102230000646641C90E10D2C18D1304600F05EFA81
:1022400032288FD9FFF7B8FE07460822754930318A
:10225000FEF7D2F810B1641C00257DE1032D02DAEF
:102260006D1C641E78E1641C002575E10E2C0BD1F9
:1022700001F0FEF908216B48483001F0E7FAFFF75A
:1022800083FE0646641C67E10F2C18D1304600F02F
:1022900035FA32288FD9FFF78FFE074608226149A9
:1022A0004831FEF7A9F810B1641C002554E1032D54
:1022B00002DA6D1C641E4FE1641C00254CE1102CF9
:1022C0000BD101F0D5F908215648503001F0BEFA83
:1022D000FFF75AFE0646641C3EE1112C18D1304629
:1022E00000F00CFA32288FD9FFF766FE0746082265
:1022F0004C495031FEF780F810B1641C00252BE1E9
:10230000032D02DA6D1C641E26E1641C002523E106
:10231000122C0BD101F0ACF908214248583001F0E1
:1023200095FAFFF731FE0646641C15E1132C18D10F
:10233000304600F0E3F932288FD9FFF73DFE07461B
:10234000082238495831FEF757F810B1641C0025AF
:1023500002E1032D02DA6D1C641EFDE0641C002501
:10236000FAE0142C0BD101F083F908212D486030DC
:1023700001F06CFAFFF708FE0646641CECE0152C31
:1023800018D1304600F0BAF932288FD9FFF714FE81
:102390000746082223496031FEF72EF810B1641C6D
:1023A0000025D9E0032D02DA6D1C641ED4E0641C04
:1023B0000025D1E0162C0BD101F05AF9082119485B
:1023C000703001F043FAFFF7DFFD0646641CC3E0FE
:1023D000172C18D1304600F091F932288FD9FFF729
:1023E000EBFD074608220F497031FEF705F810B1E2
:1023F000641C0025B0E0032D02DA6D1C641EABE006
:10240000641C0025A8E0182C0ED101F031F9082138
:102410000448683001F01AFAFFF7B6FD0646641C5E
:102420009AE0000098060020192C17D1304600F0E1
:1024300065F9322809D9FFF7BFFD07460822484948
:10244000FDF7DAFF10B1641C002585E0032D02DAE8
:102450006D1C641E80E0641C00257DE01A2C0BD1ED
:1024600001F006F908213E48103001F0EFF9FFF7BE
:102470008BFD0646641C6FE01B2C18D1304600F023
:102480003DF9322868D9FFF797FD074608223449FD
:102490001031FDF7B1FF10B1641C00255CE0032D85
:1024A00002DA6D1C641E57E0641C002554E01C2CED
:1024B0000BD101F0DDF800212948203000F077F938
:1024C000FFF762FD0646641C46E01D2C18D130461D
:1024D00000F014F932283FD9FFF76EFD07460822B5
:1024E0001F492D31FDF788FF10B1641C002533E032
:1024F000032D02DA6D1C641E2EE0641C00252BE007
:102500001E2C0BD101F0B4F808211548553001F00C
:102510009DF9FFF739FD0646641C1DE01F2C18D1FC
:10252000304600F0EBF8322816D9FFF745FD074694
:1025300008220B495531FDF75FFF10B1641C0025DF
:102540000AE0032D02DA6D1C641E05E0641C002500
:1025500002E0202C00D100E06AE500BFBDE8F08178
:102560000007002008B501211020FEF7D1FF4FF42D
:10257000E070ADF8000010208DF8030003208DF806
:10258000020069460848FEF772FE40210648FEF741
:1025900041FF80210448FEF73FFF4FF4807102485D
:1025A000FEF73AFF08BD00000010014008B562B612
:1025B0002C4800684FF47A72B0FBF2F1481EB0F17B
:1025C000807F00D31BE0481E4FF0E022506150177F
:1025D0000F22002804DB13071C0E234B1C5406E0BB
:1025E00013071D0E214B00F00F04241F1D5500BFC3
:1025F00000204FF0E02290610720106100BF4FF4EF
:10260000165000F03BFB4FF4964001F043F84FF4B6
:10261000964001F04BF900F041FAFFF7A3FF00F0FC
:10262000DDF8FFF713FCFFF721FCFFF7DDFB0020CF
:1026300003460246014600900E20FEF73FFA0020B6
:102640000B4908740B4801880BA000F017F807E04D
:10265000FEF714FCFFF7D8FA01F074F800F062FB03
:10266000F6E700005000002000E400E018ED00E074
:10267000340800208C0500200000000070B588B0F0
:1026800004460D4620216846FDF755FF2B4622469D
:1026900006A16846FDF7CAFD6846FDF7D9FE064665
:1026A0003146684601F0D2F808B070BD25733D256B
:1026B000640D00000A210EA000F0BEFF45F2555047
:1026C000FEF7C8FE0320FEF7B9FE4FF47A70FEF75E
:1026D000BBFEFEF7ABFEFEF7A1FE0120FEF7C0FF3A
:1026E00000BF6120FEF79EFF0028FAD000BFFEE782
:1026F0003A72657365742E2E2E0D0A0000B50146E0
:10270000FFF742FC401A00BD08B501210520FEF785
:10271000FFFE01210948FEF735FE1020ADF800004C
:102720008DF8030001208DF8020069460448FEF789
:102730009EFD10210248FEF76DFE08BD000230002C
:102740000008014008B501210920FEF7E1FE012142
:102750000B48FEF717FE4FF48040ADF80000102044
:102760008DF8030001208DF8020069460548FEF748
:102770007EFD4FF480410348FEF74CFE08BD00008B
:1027800000023000000C014070B504460D46280AD6
:102790002071657106212046FFF706FB0646300AC8
:1027A000A071E6710821204601F0D8F870BD70B51F
:1027B00004460D46280E6072280CA072280AE071AB
:1027C00025720B212046FFF7EFFA0646300AE07229
:1027D00026730D21204601F039F870BD00B5B3B065
:1027E00066A30FCBCDE93123CDE92F0167A103C942
:1027F000CDE92D0167A103C9CDE92B0167A103C96B
:10280000CDE9290167A103C9CDE9270167A103C962
:10281000CDE92501674903C9CDE9230166A103C9B3
:10282000CDE9210166A103C9CDE91F0166A103C954
:10283000CDE91D0166A103C9CDE91B0166A103C94C
:10284000CDE9190166A103C9CDE9170166A103C944
:10285000CDE9150166A103C9CDE9130166A103C93C
:10286000CDE9110166A103C9CDE90F0166A103C934
:10287000CDE90D0166A103C9CDE90B0166A103C92C
:10288000CDE9090166A103C9CDE9070166A103C924
:10289000CDE9050166A103C9CDE9030166A103C91C
:1028A000CDE901010D222FA96548FDF7F0FD64482F
:1028B0000838DDE92D1206C08838DDE92B12C0E9A1
:1028C0001E129530299901602A9941609538DDE9F9
:1028D000271206C00838DDE92512C0E90212DDE939
:1028E0002312C0E90412DDE92112C0E90612DDE974
:1028F0001F12C0E90812DDE91D12C0E90A12DDE964
:102900001B12C0E90C12DDE91912C0E90E12DDE953
:102910001712C0E91012DDE91512C0E91212DDE943
:102920001312C0E91412DDE91112C0E91612DDE933
:102930000F12C0E91812DDE90D12C0E91A12DDE923
:102940000B12C0E91C129D30099901600A9941607F
:1029500008300799016008994160083005990160C5
:10296000069941600830039901600499416008307C
:10297000019901600299416033B000BD0110016806
:1029800000020486A00001111B00000001060001E6
:10299000000119CA0106019001F4880C01100168B8
:1029A0000002C1E8010600020003680B01060004F2
:1029B0000000C80BF03B000801100050000241D994
:1029C000010600900001482701060094000109E675
:1029D00001060096000069E6010600800000982CC0
:1029E000010600810001982C010600840004C82023
:1029F000010600850014982C010600860011A82FFE
:102A0000010600870010382F010601A000FFC854FE
:102A10000106008F000179E1010601A400024814BB
:102A20000103047800010523010601A40001081533
:102A3000010601A40000C9D5010601A70801FFD5C0
:102A4000200700202DE9F04104460D461646280ACD
:102A5000A070E570300A2071667106212046FFF7EC
:102A6000A3F90746380AA071E7710821204600F053
:102A7000EDFEBDE8F08170B504460D46280A2071D0
:102A8000657106212046FFF78FF90646300AA071CE
:102A9000E6710821204600F0D9FE70BD9FB04EA01F
:102AA00000681E904DA103C9CDE91C014DA103C9C9
:102AB000CDE91A014DA103C9CDE918014DA103C902
:102AC000CDE916014DA0006815904DA00068149046
:102AD0004CA103C9CDE912014CA103C9CDE91001F4
:102AE0004CA103C9CDE90E014CA103C9CDE90C01EC
:102AF0004CA103C9CDE90A014CA103C9CDE90801E4
:102B00004CA103C9CDE906014CA103C9CDE90401DB
:102B10004CA103C9CDE902014CA103C9CDE90001D3
:102B20004C481E9901601C998160BDF87410818128
:102B300018990161BDF8641081821A998161BDF80C
:102B40006C10818316990162BDF85C10818415991F
:102B500081621499016312998163BDF84C108187D9
:102B600010990164BDF84410A0F844108030009919
:102B70000161BDF80410818204998160BDF81410D0
:102B8000818102990160BDF80C10818080380A991A
:102B90008164BDF82C10A0F84C1006990167BDF8AF
:102BA0001C10A0F8741008998165BDF82410A0F8D5
:102BB0005C100E990165BDF83C10A0F854100C99FA
:102BC0008166BDF83410A0F86C1000202149C1F8CE
:102BD000C8001FB070470000000620080106200052
:102BE0000005000001062000000100000106200091
:102BF000000200000106200105DC000001062003A0
:102C00000106200401032003000100000103200449
:102C10000001000001062000000700000106200955
:102C20000003000001032104000100000103200152
:102C3000000100000006200B000500000006200235
:102C40000002000000062006000200000006200A24
:102C5000000100006400002010B5C8210448FDF701
:102C600048FC0020034908600349086010BD0000CB
:102C700034030020000000200800002010B586B0BA
:102C80000446012144F20500FEF742FC2348FEF70A
:102C90003DFE4FF40070ADF8140001208DF81600D1
:102CA00018208DF8170005A91D48FEF7E0FA4FF42B
:102CB0008060ADF8140004208DF8170005A91848AD
:102CC000FEF7D5FA01940020ADF80800ADF80A002F
:102CD000ADF80C00ADF810000C20ADF80E0001A905
:102CE0000E48FEF7BDFE25208DF8000003208DF86C
:102CF000010004208DF8020001208DF803006846D1
:102D0000FEF7AEFB012240F225510448FEF783FE98
:102D100001210248FEF7EEFD06B010BD003801406B
:102D2000000801402DE9F04389B0FFF737F98146EB
:102D3000B9F1000F6FD0FFF72DF904460B22FEA169
:102D40002046FDF759FB002873D1FE48B0F8065124
:102D500085F0010018B10621FBA000F06DFC0DB953
:102D6000012000E0002080F0010018B10721F8A048
:102D700000F062FC85F0020018B90C21F6A000F00A
:102D80005BFC85F0030018B90C21F7A000F054FC9F
:102D900085F0040018B90F21F7A000F04DFC85F074
:102DA000050018B90C21F8A000F046FC85F00600DB
:102DB00018B90C21F8A000F03FFC85F0070018B905
:102DC0000F21F9A000F038FC85F0080018B10921A6
:102DD000F9A000F031FC85F0080018B90A21F9A02B
:102DE00000F02AFCD748B0F80601072856D2DFE8E1
:102DF00000F0040513212E3B480054E0F4A101A883
:102E0000FDF714FA01A8FDF723FB0746394601A890
:102E100000F012FC47E0AAE3F1A101A8FDF706FAD1
:102E200001A8FDF715FB0746394601A800F004FC90
:102E300039E04BE0EEA101A8FDF7F8F901A8FDF794
:102E400007FB0746394601A800F0F6FB2BE0ECA192
:102E500001A8FDF7EBF901A8FDF7FAFA0746394694
:102E600001A800F0E9FB1EE0E9A101A8FDF7DEF9E9
:102E700001A8FDF7EDFA0746394601A800F0DCFB92
:102E800011E0E7A101A8FDF7D1F901A8FDF7E0FAEB
:102E90000746394601A800F0CFFB04E00B21E3A070
:102EA00000F0CAFB00BF00BFA648B0F80831B0F878
:102EB0000621E1A101A8FDF7B9F901A8FDF7C8FABB
:102EC0000746394601A800F0B7FB4EE30322E2A112
:102ED0002046FDF791FA002843D10A220021E01C88
:102EE000FDF752FA0746002F36DDDCA103C9CDE914
:102EF000070100252CE0DB4830F8250038BB781CA2
:102F000000EBD0714910491CD64A22F82510104612
:102F100010F825008DF81C00F8B28DF81D008949C5
:102F20000888082207A9FEF7C1F88046B8F1000F0B
:102F300003D10C21CCA000F089FCCA4921F82570EE
:102F400080484088A84201DA7E494D8002E06D1C2D
:102F5000802DD0DB00BF00BF0421C7A000F06CFBB8
:102F600003E30422C6A12046FDF746FAD0B9C6A164
:102F700003C9CDE906010A2208A9201DFDF704FABC
:102F800005460A2200210898001DFDF7FDF90746B5
:102F90003A46294606A8FFF755FD0521BCA000F0DA
:102FA0004BFBE2E20922BCA12046FDF725FA20B93D
:102FB0000521B7A000F040FBD7E20822B9A12046C6
:102FC000FDF71AFA40B90120B949C1F8C800052136
:102FD000AFA000F031FBC8E20722B6A12046FDF702
:102FE0000BFA40B90020B249C1F8C8000521A8A0D9
:102FF00000F022FBB9E20522B0A12046FDF7FCF962
:1030000040B90821AF4800F021FC0521A0A000F044
:1030100013FBAAE20422ACA12046FDF7EDF948B962
:103020000821A848083000F011FC052198A000F004
:1030300003FB9AE20822A6A12046FDF7DDF970B94C
:103040000A2208A904F10800FDF79EF99D49AD394F
:10305000C1F8D00005218EA000F0EEFA85E20A2228
:103060009EA12046FDF7C8F998B90A22002104F173
:103070000A00FDF789F99349AD39C1F8C80031B2AA
:1030800090483538FFF780FB052181A000F0D4FA85
:103090006BE20B2294A12046FDF7AEF9D8B90A22C3
:1030A000002104F10B00FDF76FF98649AD39C1F835
:1030B000CC000846D0F8CC101030FFF7DCFC81487B
:1030C000AD38D0F8CC101830FFF7D5FC052170A032
:1030D00000F0B2FA49E2052286A12046FDF78CF9FC
:1030E000B0B90A2208A9601DFDF74EF970490870B1
:1030F0000A2200210898401CFDF746F90646314691
:103100006B48FFF7B8FC052161A000F095FA2CE2AE
:103110000A227AA12046FDF76FF958B90A22002148
:1031200004F10A00FDF730F906466148C0F8BC60BA
:103130000122E9E0F2E000007374617475735F7757
:103140006F726B008C05002053746F700D0A0000C5
:1031500053746172740D0A0073746174655F6F76E5
:103160005F690D0A0000000073746174655F6F761B
:103170005F750D0A0000000073746174655F65720D
:10318000725F656E630D0A0073746174655F6F76BC
:103190005F740D0A0000000073746174655F6F76E0
:1031A0005F710D0A0000000073746174655F6F76D3
:1031B0005F6C6F61640D0A007063206374726C0D44
:1031C0000A000000504C43206374726C0D0A00002A
:1031D0006F7665722063757272656E740D00000003
:1031E0006F76657220766F6C746167650D00000004
:1031F000756E64657220766F6C746167650D000092
:103200006C6F636B656420726F746F720D000000E9
:10321000686F6C7A6572206661756C740D000000D1
:10322000746F6F20686F740D00000000756E6B6F17
:10323000776E206572720D006361725F6572726FE6
:10324000723A25642C736572766F5F6572726F7265
:103250003A25640D0000000077696E000102030446
:10326000050607083401002073656E6420666169F5
:103270006C65640A0000000077696E0D00000000B4
:10328000616464720000000001060000000000009C
:10329000737563630D0000006465766963655F693B
:1032A00064000000776F726B5F6F6666000000005D
:1032B00064000020776F726B5F6F6E0073746172D1
:1032C000740000004507002073746F700000000058
:1032D000706F735F7365743D00000000706F735F03
:1032E00073706565643D0000706F735F616474693D
:1032F0006D653D0073657469640000006361725F11
:1033000073706565643D000031462030FEF76FFE46
:103310000521AFF2840000F08FF926E10B2295A180
:103320002046FDF769F8D0B90A22002104F10B000C
:10333000FDF72AF806469248C0F8B06001223146EF
:103340002830FEF754FE012231468D483030FEF71A
:103350004EFE0521AFF2C80000F06EF905E109222A
:1033600088A12046FDF748F870B90A22002104F12F
:103370000900FDF709F8054685490D800521AFF2E2
:10338000F00000F059F9F0E0052282A12046FDF797
:1033900033F848B902207A49C1F8CC000521AFF2D0
:1033A000101000F049F9E0E005227CA12046FDF76D
:1033B00023F848B903207249C1F8CC000521AFF2C7
:1033C000301000F039F9D0E0052276A12046FDF753
:1033D00013F848B904206A49C1F8CC000521AFF2BE
:1033E000501000F029F9C0E0072270A12046FDF737
:1033F00003F840B96F48FDF72BF8054629466D489C
:1034000000F01AF9B1E00A226BA12046FCF7F4FFA4
:1034100010B9FEF72BFDA8E004226AA12046FCF7B4
:10342000EBFFB0B95648D0F8BC100820FEF7AAFB55
:103430005348D0F8B0100420FEF7A4FB544801888C
:103440000C20FEF79FFB0521AFF2BC1000F0F4F852
:103450008BE010225DA12046FCF7CEFF90B90A2236
:10346000002104F11000FCF78FFF064602223146CE
:1034700043482030FEF7BBFD0521AFF2EC1000F011
:10348000DBF872E00B2256A12046FCF7B5FF50B9DD
:1034900002213B481830FEF799FD0521AFF21020BC
:1034A00000F0CAF861E00B2250A12046FCF7A4FF0F
:1034B00050B9022132481030FEF788FD0521AFF2E5
:1034C000302000F0B9F850E00B224BA12046FCF769
:1034D00093FF50B902212A480830FEF777FD0521F5
:1034E000AFF2542000F0A8F83FE0062245A12046A4
:1034F000FCF782FF98B90A2208A9A01DFCF744FF37
:1035000005461F490D700A2200210898401CFCF74F
:103510003BFF074639461A48FFF7ADFA25E005227A
:103520003AA12046FCF768FF48B90821394800F065
:103530008DF90521AFF2A82000F07EF815E00922F0
:1035400035A12046FCF758FF10B9FEF76BFD0CE0E3
:10355000052234A12046FCF74FFF10B9FFF7AAF867
:1035600003E00A2131A000F067F8FFF775FB09B00E
:10357000BDE8F0836361725F616474696D653D00ED
:10358000640000206361725F7469636B3D0000003A
:103590001E0000206361725F660000006361725F5D
:1035A000620000006361725F7300000076657273F1
:1035B000696F6E0020000020726561645F666C6157
:1035C0007368000073617665000000006361725FDC
:1035D0006F746865725F73706565643D000000001C
:1035E0006361725F6F746865725F66006361725FCA
:1035F0006F746865725F62006361725F6F746865A3
:10360000725F73007365745F69640000636C656169
:103610006E00000035070020696E6974536572768C
:103620006F0000007265736574000000756E6B6E4C
:103630006F7720636D64000070B506460C46002568
:10364000002C00DC70BD00250BE0715D0748FEF723
:1036500078FA00BF80210548FEF7A6F90028F9D0C6
:103660006D1CA542F1DB00BFECE700000038014013
:1036700010B5C8210448FCF73CFF0020034908604E
:103680000349086010BD0000FC0300200C0000206E
:103690001000002010B586B0044601214804FDF753
:1036A00017FF01210520FDF733FF2448FEF72EF90F
:1036B0000420ADF8140001208DF8160018208DF8B4
:1036C000170005A91E48FDF7D2FD0820ADF814002B
:1036D00004208DF8170005A91948FDF7C8FD0194CD
:1036E0000020ADF80800ADF80A00ADF80C00ADF808
:1036F00010000C20ADF80E0001A91048FEF7B0F93B
:1037000026208DF8000003208DF8010002208DF89E
:10371000020001208DF803006846FDF7A1FE01229A
:1037200040F225510548FEF776F901210348FEF7DE
:10373000E1F8FEF7E9FF06B010BD000000440040CC
:10374000000801402DE9FC412F4FFEF739FC0646E9
:10375000FEF732FC0446002E54D000BF381EA7F1FD
:103760000107FBD1052229A12046FCF745FE18BB25
:103770000A220021601DFCF707FE0546002D1ADB1A
:1037800024A103C9CDE90001E8B28DF80100234965
:10379000088808226946FDF789FC8046B8F1000FC9
:1037A00004D00C211EA000F051F803E00A2120A053
:1037B00000F04CF800BF23E0042220A12046FCF7D3
:1037C0001BFE58B90A220021201DFCF7DDFD05462D
:1037D000002D02DD1149A1F8065111E0042219A1C2
:1037E0002046FCF709FE58B90A220021201DFCF7EB
:1037F000CBFD0546002D02DD0848A0F8085100BFAA
:10380000FFF736FFBDE8FC81A0860100696E707588
:103810007400000002020304050607088C0500205E
:1038200073656E64206661696C65640A000000005F
:1038300073656E6420737563630A0000636172319F
:1038400000000000636172320000000070B506469F
:103850000C460025002C00DC70BD10211048FDF73F
:10386000DBFD4FF47A7000F0A7F800250BE0715DE6
:103870000C48FEF766F900BF80210A48FEF794F86D
:103880000028F9D06D1CA542F1DB0748008800F044
:1038900093F810210248FDF7BDFD00BFDCE70000F2
:1038A00000080140004400401E00002010B586B012
:1038B00004460121C804FDF70BFE01211120FDF78C
:1038C00027FE2448FEF722F84FF48060ADF814007C
:1038D00001208DF8160018208DF8170005A91E4844
:1038E000FDF7C5FC4FF40060ADF8140048208DF8DA
:1038F000170005A91848FDF7BAFC01940020ADF89F
:103900000800ADF80A00ADF80C00ADF810000C206E
:10391000ADF80E0001A90F48FEF7A2F834208DF88B
:10392000000003208DF801008DF8020001208DF8C1
:1039300003006846FDF794FD012240F22551054839
:10394000FEF769F801210348FDF7D4FFFEF7FAFE00
:1039500006B010BD004C00400010014070B5064696
:103960000C460025002C00DC70BD642000F024F81B
:103970004FF480410E48FDF74FFD00250BE0715DCF
:103980000C48FEF7DEF800BF80210A48FEF70CF86D
:103990000028F9D06D1CA542F1DB40F6C41000F000
:1039A0000BF84FF480410248FDF734FD00BFDBE720
:1039B000000C0140004C0040002100E0491C814205
:1039C000FCDB704710B500290AD00878002807D022
:1039D00005487844FCF706FF002801D0002010BD00
:1039E0000248784410BD00009A02000092020000D4
:1039F0000000C1C081C1400101C3C003800241C2B7
:103A000001C6C006800741C70005C1C581C4400486
:103A100001CCC00C800D41CD000FC1CF81CE400E36
:103A2000000AC1CA81CB400B01C9C009800841C846
:103A300001D8C018801941D9001BC1DB81DA401AB6
:103A4000001EC1DE81DF401F01DDC01D801C41DC86
:103A50000014C1D481D5401501D7C017801641D6B6
:103A600001D2C012801341D30011C1D181D04010C6
:103A700001F0C030803141F10033C1F381F24032B6
:103A80000036C1F681F7403701F5C035803441F486
:103A9000003CC1FC81FD403D01FFC03F803E41FE36
:103AA00001FAC03A803B41FB0039C1F981F8403846
:103AB0000028C1E881E9402901EBC02B802A41EAB6
:103AC00001EEC02E802F41EF002DC1ED81EC402C86
:103AD00001E4C024802541E50027C1E781E64026B6
:103AE0000022C1E281E3402301E1C021802041E0C6
:103AF00001A0C060806141A10063C1A381A24062B6
:103B00000066C1A681A7406701A5C065806441A485
:103B1000006CC1AC81AD406D01AFC06F806E41AE35
:103B200001AAC06A806B41AB0069C1A981A8406845
:103B30000078C1B881B9407901BBC07B807A41BAB5
:103B400001BEC07E807F41BF007DC1BD81BC407C85
:103B500001B4C074807541B50077C1B781B64076B5
:103B60000072C1B281B3407301B1C071807041B0C5
:103B70000050C190819140510193C05380524192B5
:103B80000196C056805741970055C1958194405485
:103B9000019CC05C805D419D005FC19F819E405E35
:103BA000005AC19A819B405B0199C0598058419845
:103BB0000188C04880494189004BC18B818A404AB5
:103BC000004EC18E818F404F018DC04D804C418C85
:103BD0000044C184818540450187C04780464186B5
:103BE0000182C042804341830041C18181804040C5
:103BF00001100050000204006361725F6164746927
:103C00006D653D25642C6361725F73706565643D0D
:103C100025642C6361725F7469636B3D25642C704D
:103C20006F735F73706565643D25642C706F735F9F
:103C3000616474696D653D25642C706F735F736595
:103C4000743D25642C69643D25640D007C3D0008AD
:103C500000000020640000006C010008E03D000846
:103C6000640000204C0F00008801000810010000D3
:103C700043000000F8FFFFFF00404040404040404C
:103C8000404041414141414040404040404040402F
:103C900040404040404040404005020202020202D3
:103CA0000202020202020202022020202020202022
:103CB0002020200202020202020290909090909036
:103CC00010101010101010101010101010101010F4
:103CD0001010101002020202020288888888888868
:103CE0000808080808080808080808080808080854
:103CF000080808080202020240000000000000005C
:103D000000000000000000000000000000000000B3
:103D100000000000000000000000000000000000A3
:103D20000000000000000000000000000000000093
:103D30000000000000000000000000000000000083
:103D40000000000000000000000000000000000073
:103D50000000000000000000000000000000000063
:103D60000000000000000000000000000000000053
:103D70000000000000000000000000000000000043
:103D80000000000000000000000000000000000033
:103D90000000000000000000010000007665727362
:103DA000696F6E2076312E310000000000000000A7
:103DB00000000000000000000000000001020304F9
:103DC00001020304060708090204060800A24A04C7
:103DD00000000000000000000102030406070809BB
:0400000508000131BD
:00000001FF
